{
  "contractName": "HelloWorld",
  "abi": [
    {
      "inputs": [],
      "name": "add",
      "outputs": [],
      "stateMutability": "nonpayable",
      "type": "function"
    },
    {
      "inputs": [],
      "name": "subtract",
      "outputs": [],
      "stateMutability": "nonpayable",
      "type": "function"
    },
    {
      "inputs": [],
      "name": "reset",
      "outputs": [],
      "stateMutability": "nonpayable",
      "type": "function"
    },
    {
      "inputs": [],
      "name": "getCounter",
      "outputs": [
        {
          "internalType": "uint256",
          "name": "",
          "type": "uint256"
        }
      ],
      "stateMutability": "view",
      "type": "function",
      "constant": true
    }
  ],
  "bytecode": "0x608060405260055f55348015610013575f80fd5b506101a5806100215f395ff3fe608060405234801561000f575f80fd5b506004361061004a575f3560e01c80634f2be91f1461004e5780636deebae3146100585780638ada066e14610062578063d826f88f14610080575b5f80fd5b61005661008a565b005b6100606100a2565b005b61006a6100ba565b60405161007791906100e2565b60405180910390f35b6100886100c2565b005b5f8081548092919061009b90610128565b9190505550565b5f808154809291906100b390610128565b9190505550565b5f8054905090565b5f8081905550565b5f819050919050565b6100dc816100ca565b82525050565b5f6020820190506100f55f8301846100d3565b92915050565b7f4e487b71000000000000000000000000000000000000000000000000000000005f52601160045260245ffd5b5f610132826100ca565b91507fffffffffffffffffffffffffffffffffffffffffffffffffffffffffffffffff8203610164576101636100fb565b5b60018201905091905056fea26469706673582212202555be33e872814e4394164e3a0bdd65273b2aac05849b0acd6df2aa540ec43864736f6c63430008150033",
  "immutableReferences": {},
  "source": "// SPDX-License-Identifier: MIT\npragma solidity >=0.4.22 <0.9.0;\n\ncontract HelloWorld {\n  uint256 counter = 5;\n\n  function add() public {\n    counter++;\n  }\n\n  function subtract() public {\n    counter++;\n  }\n\n  function reset() public {\n    counter = 0;\n  }\n\n  function getCounter() public view returns (uint256) {\n    return counter;\n  }\n}\n",
  "sourcePath": "/Users/dimitriskasampalis/Workspace/Devquercus/EKPA/l2316-c1-u1/HelloWorld/contracts/HelloWorld.sol",
  "compiler": {
    "name": "solc",
    "version": "0.8.21+commit.d9974bed.Emscripten.clang"
  },
  "schemaVersion": "3.4.15",
  "updatedAt": "2023-09-02T16:45:02.224Z",
  "networkType": "ethereum",
  "devdoc": {
    "kind": "dev",
    "methods": {},
    "version": 1
  },
  "userdoc": {
    "kind": "user",
    "methods": {},
    "version": 1
  }
}